{
  "_format": "hh-sol-artifact-1",
  "contractName": "ChessPlayed",
  "sourceName": "contracts/chess.sol",
  "abi": [
    {
      "inputs": [],
      "stateMutability": "payable",
      "type": "constructor"
    },
    {
      "inputs": [],
      "name": "betAmount",
      "outputs": [
        {
          "internalType": "uint256",
          "name": "",
          "type": "uint256"
        }
      ],
      "stateMutability": "view",
      "type": "function"
    },
    {
      "inputs": [],
      "name": "chess",
      "outputs": [
        {
          "internalType": "contract ChessPlayed",
          "name": "",
          "type": "address"
        }
      ],
      "stateMutability": "view",
      "type": "function"
    },
    {
      "inputs": [],
      "name": "currentState",
      "outputs": [
        {
          "internalType": "enum ChessPlayed.GameState",
          "name": "",
          "type": "uint8"
        }
      ],
      "stateMutability": "view",
      "type": "function"
    },
    {
      "inputs": [],
      "name": "draw",
      "outputs": [],
      "stateMutability": "nonpayable",
      "type": "function"
    },
    {
      "inputs": [],
      "name": "player1",
      "outputs": [
        {
          "internalType": "address payable",
          "name": "",
          "type": "address"
        }
      ],
      "stateMutability": "view",
      "type": "function"
    },
    {
      "inputs": [],
      "name": "player2",
      "outputs": [
        {
          "internalType": "address payable",
          "name": "",
          "type": "address"
        }
      ],
      "stateMutability": "view",
      "type": "function"
    },
    {
      "inputs": [],
      "name": "resign",
      "outputs": [],
      "stateMutability": "nonpayable",
      "type": "function"
    },
    {
      "inputs": [
        {
          "internalType": "address",
          "name": "player1",
          "type": "address"
        },
        {
          "internalType": "address",
          "name": "player2",
          "type": "address"
        }
      ],
      "name": "startGame",
      "outputs": [
        {
          "internalType": "bool",
          "name": "",
          "type": "bool"
        },
        {
          "internalType": "uint256",
          "name": "",
          "type": "uint256"
        }
      ],
      "stateMutability": "payable",
      "type": "function"
    },
    {
      "inputs": [],
      "name": "win",
      "outputs": [],
      "stateMutability": "nonpayable",
      "type": "function"
    },
    {
      "stateMutability": "payable",
      "type": "receive"
    }
  ],
  "bytecode": "0x6080604052610d06806100136000396000f3fe60806040526004361061008a5760003560e01c806359a5f12d1161005957806359a5f12d1461011a57806369652fcf14610145578063d24257c01461015c578063d30895e414610187578063eb23b56b146101b257610091565b80630c3f6acf146100965780630eecae21146100c1578063348427fc146100d8578063473ca96c1461010357610091565b3661009157005b600080fd5b3480156100a257600080fd5b506100ab6101e3565b6040516100b89190610891565b60405180910390f35b3480156100cd57600080fd5b506100d66101f6565b005b3480156100e457600080fd5b506100ed610381565b6040516100fa919061092b565b60405180910390f35b34801561010f57600080fd5b506101186103a5565b005b34801561012657600080fd5b5061012f610448565b60405161013c9190610967565b60405180910390f35b34801561015157600080fd5b5061015a61046e565b005b34801561016857600080fd5b50610171610642565b60405161017e919061099b565b60405180910390f35b34801561019357600080fd5b5061019c610648565b6040516101a99190610967565b60405180910390f35b6101cc60048036038101906101c791906109f9565b61066e565b6040516101da929190610a54565b60405180910390f35b600060149054906101000a900460ff1681565b6001600481111561020a5761020961081a565b5b600060149054906101000a900460ff16600481111561022c5761022b61081a565b5b1461026c576040517f08c379a000000000000000000000000000000000000000000000000000000000815260040161026390610ada565b60405180910390fd5b600160009054906101000a900473ffffffffffffffffffffffffffffffffffffffff1673ffffffffffffffffffffffffffffffffffffffff163373ffffffffffffffffffffffffffffffffffffffff1614806103155750600260009054906101000a900473ffffffffffffffffffffffffffffffffffffffff1673ffffffffffffffffffffffffffffffffffffffff163373ffffffffffffffffffffffffffffffffffffffff16145b610354576040517f08c379a000000000000000000000000000000000000000000000000000000000815260040161034b90610b46565b60405180910390fd5b6002600060146101000a81548160ff0219169083600481111561037a5761037961081a565b5b0217905550565b60008054906101000a900473ffffffffffffffffffffffffffffffffffffffff1681565b600160048111156103b9576103b861081a565b5b600060149054906101000a900460ff1660048111156103db576103da61081a565b5b1461041b576040517f08c379a000000000000000000000000000000000000000000000000000000000815260040161041290610ada565b60405180910390fd5b6004600060146101000a81548160ff021916908360048111156104415761044061081a565b5b0217905550565b600260009054906101000a900473ffffffffffffffffffffffffffffffffffffffff1681565b600160048111156104825761048161081a565b5b600060149054906101000a900460ff1660048111156104a4576104a361081a565b5b146104e4576040517f08c379a00000000000000000000000000000000000000000000000000000000081526004016104db90610ada565b60405180910390fd5b600160009054906101000a900473ffffffffffffffffffffffffffffffffffffffff1673ffffffffffffffffffffffffffffffffffffffff163373ffffffffffffffffffffffffffffffffffffffff16148061058d5750600260009054906101000a900473ffffffffffffffffffffffffffffffffffffffff1673ffffffffffffffffffffffffffffffffffffffff163373ffffffffffffffffffffffffffffffffffffffff16145b6105cc576040517f08c379a00000000000000000000000000000000000000000000000000000000081526004016105c390610b46565b60405180910390fd5b3373ffffffffffffffffffffffffffffffffffffffff166108fc6003549081150290604051600060405180830381858888f19350505050158015610614573d6000803e3d6000fd5b506003600060146101000a81548160ff0219169083600481111561063b5761063a61081a565b5b0217905550565b60035481565b600160009054906101000a900473ffffffffffffffffffffffffffffffffffffffff1681565b600080600060048111156106855761068461081a565b5b600060149054906101000a900460ff1660048111156106a7576106a661081a565b5b146106e7576040517f08c379a00000000000000000000000000000000000000000000000000000000081526004016106de90610bb2565b60405180910390fd5b6000341161072a576040517f08c379a000000000000000000000000000000000000000000000000000000000815260040161072190610c44565b60405180910390fd5b8373ffffffffffffffffffffffffffffffffffffffff163373ffffffffffffffffffffffffffffffffffffffff1603610798576040517f08c379a000000000000000000000000000000000000000000000000000000000815260040161078f90610cb0565b60405180910390fd5b3393503373ffffffffffffffffffffffffffffffffffffffff163373ffffffffffffffffffffffffffffffffffffffff16146107d457336107d6565b305b9250346003819055506001600060146101000a81548160ff021916908360048111156108055761080461081a565b5b02179055506001600354915091509250929050565b7f4e487b7100000000000000000000000000000000000000000000000000000000600052602160045260246000fd5b6005811061085a5761085961081a565b5b50565b600081905061086b82610849565b919050565b600061087b8261085d565b9050919050565b61088b81610870565b82525050565b60006020820190506108a66000830184610882565b92915050565b600073ffffffffffffffffffffffffffffffffffffffff82169050919050565b6000819050919050565b60006108f16108ec6108e7846108ac565b6108cc565b6108ac565b9050919050565b6000610903826108d6565b9050919050565b6000610915826108f8565b9050919050565b6109258161090a565b82525050565b6000602082019050610940600083018461091c565b92915050565b6000610951826108ac565b9050919050565b61096181610946565b82525050565b600060208201905061097c6000830184610958565b92915050565b6000819050919050565b61099581610982565b82525050565b60006020820190506109b0600083018461098c565b92915050565b600080fd5b60006109c6826108ac565b9050919050565b6109d6816109bb565b81146109e157600080fd5b50565b6000813590506109f3816109cd565b92915050565b60008060408385031215610a1057610a0f6109b6565b5b6000610a1e858286016109e4565b9250506020610a2f858286016109e4565b9150509250929050565b60008115159050919050565b610a4e81610a39565b82525050565b6000604082019050610a696000830185610a45565b610a76602083018461098c565b9392505050565b600082825260208201905092915050565b7f47616d65206e6f74207374617274656420796574000000000000000000000000600082015250565b6000610ac4601483610a7d565b9150610acf82610a8e565b602082019050919050565b60006020820190508181036000830152610af381610ab7565b9050919050565b7f596f7520617265206e6f74206120706c61796572000000000000000000000000600082015250565b6000610b30601483610a7d565b9150610b3b82610afa565b602082019050919050565b60006020820190508181036000830152610b5f81610b23565b9050919050565b7f47616d6520616c72656164792073746172746564000000000000000000000000600082015250565b6000610b9c601483610a7d565b9150610ba782610b66565b602082019050919050565b60006020820190508181036000830152610bcb81610b8f565b9050919050565b7f42657420616d6f756e742073686f756c6420626520677265617465722074686160008201527f6e20300000000000000000000000000000000000000000000000000000000000602082015250565b6000610c2e602383610a7d565b9150610c3982610bd2565b604082019050919050565b60006020820190508181036000830152610c5d81610c21565b9050919050565b7f596f752063616e6e6f7420706c6179207769746820796f757273656c66000000600082015250565b6000610c9a601d83610a7d565b9150610ca582610c64565b602082019050919050565b60006020820190508181036000830152610cc981610c8d565b905091905056fea2646970667358221220430c0e8138e422fbfb543c68835c24587f98da5637c94bbd62b4de839482e12164736f6c63430008120033",
  "linkReferences": {},
  "deployedLinkReferences": {}
}